{
    "contractName": "Marketplace",
    "abi": [
        {
            "inputs": [
                {
                    "internalType": "address",
                    "name": "nftToken",
                    "type": "address"
                },
                {
                    "internalType": "address",
                    "name": "paymentToken",
                    "type": "address"
                },
                {
                    "internalType": "address",
                    "name": "rewardToken",
                    "type": "address"
                }
            ],
            "stateMutability": "nonpayable",
            "type": "constructor"
        },
        {
            "inputs": [],
            "name": "AlreadyOnSale",
            "type": "error"
        },
        {
            "inputs": [],
            "name": "AlreadyOwner",
            "type": "error"
        },
        {
            "inputs": [],
            "name": "InvalidSale",
            "type": "error"
        },
        {
            "inputs": [],
            "name": "NotItemOwner",
            "type": "error"
        },
        {
            "inputs": [],
            "name": "NothingForClaim",
            "type": "error"
        },
        {
            "inputs": [],
            "name": "PCT_DENOMINATOR",
            "outputs": [
                {
                    "internalType": "uint256",
                    "name": "",
                    "type": "uint256"
                }
            ],
            "stateMutability": "view",
            "type": "function"
        },
        {
            "inputs": [],
            "name": "_rewardsAmount",
            "outputs": [
                {
                    "internalType": "uint256",
                    "name": "",
                    "type": "uint256"
                }
            ],
            "stateMutability": "view",
            "type": "function"
        },
        {
            "inputs": [
                {
                    "internalType": "uint256",
                    "name": "tokenId",
                    "type": "uint256"
                }
            ],
            "name": "buy",
            "outputs": [],
            "stateMutability": "nonpayable",
            "type": "function"
        },
        {
            "inputs": [
                {
                    "internalType": "address",
                    "name": "user",
                    "type": "address"
                }
            ],
            "name": "claim",
            "outputs": [],
            "stateMutability": "nonpayable",
            "type": "function"
        },
        {
            "inputs": [
                {
                    "internalType": "uint256",
                    "name": "tokenId",
                    "type": "uint256"
                }
            ],
            "name": "discardFromSale",
            "outputs": [],
            "stateMutability": "nonpayable",
            "type": "function"
        },
        {
            "inputs": [
                {
                    "internalType": "uint256",
                    "name": "",
                    "type": "uint256"
                }
            ],
            "name": "items",
            "outputs": [
                {
                    "internalType": "address",
                    "name": "seller",
                    "type": "address"
                },
                {
                    "internalType": "uint256",
                    "name": "price",
                    "type": "uint256"
                },
                {
                    "internalType": "uint256",
                    "name": "startTime",
                    "type": "uint256"
                }
            ],
            "stateMutability": "view",
            "type": "function"
        },
        {
            "inputs": [
                {
                    "internalType": "uint256",
                    "name": "tokenId",
                    "type": "uint256"
                },
                {
                    "internalType": "uint256",
                    "name": "postponeSeconds",
                    "type": "uint256"
                }
            ],
            "name": "postponeSale",
            "outputs": [],
            "stateMutability": "nonpayable",
            "type": "function"
        },
        {
            "inputs": [
                {
                    "internalType": "uint256",
                    "name": "tokenId",
                    "type": "uint256"
                },
                {
                    "internalType": "uint256",
                    "name": "price",
                    "type": "uint256"
                },
                {
                    "internalType": "uint256",
                    "name": "startTime",
                    "type": "uint256"
                }
            ],
            "name": "setForSale",
            "outputs": [],
            "stateMutability": "nonpayable",
            "type": "function"
        }
    ],
    "bytecode": "608060405234801561001057600080fd5b50604051610cdb380380610cdb83398101604081905261002f9161008e565b600180546001600160a01b03199081166001600160a01b0393841617909155600080548216938316939093179092556004805490921692169190911790556100d1565b80516001600160a01b038116811461008957600080fd5b919050565b6000806000606084860312156100a357600080fd5b6100ac84610072565b92506100ba60208501610072565b91506100c860408501610072565b90509250925092565b610bfb806100e06000396000f3fe608060405234801561001057600080fd5b50600436106100885760003560e01c806398e8b1db1161005b57806398e8b1db146100da578063bfb231d2146100ed578063d96a094a1461014b578063f4fb5dff1461015e57600080fd5b80631e83409a1461008d57806360a5b604146100a25780637c7dcd33146100b557806380b1acf5146100d1575b600080fd5b6100a061009b366004610a1f565b610171565b005b6100a06100b0366004610a43565b610262565b6100be60025481565b6040519081526020015b60405180910390f35b6100be6103e881565b6100a06100e8366004610a65565b610313565b6101266100fb366004610a65565b6005602052600090815260409020805460018201546002909201546001600160a01b03909116919083565b604080516001600160a01b0390941684526020840192909252908201526060016100c8565b6100a0610159366004610a65565b6103d2565b6100a061016c366004610a7e565b6105c8565b6001600160a01b038116600090815260036020526040812054908190036101ab576040516364fb705b60e01b815260040160405180910390fd5b60005b8181101561023c576001600160a01b03831660009081526003602052604081206101d88385610ac0565b815481106101e8576101e8610ad9565b90600052602060002090600202019050610206848260010154610703565b6040805180820190915281548152600182015460208201526102299085906107de565b508061023481610aef565b9150506101ae565b506001600160a01b038216600090815260036020526040812061025e916109c7565b5050565b600480546040516331a9108f60e11b815291820184905233916001600160a01b0390911690636352211e90602401602060405180830381865afa1580156102ad573d6000803e3d6000fd5b505050506040513d601f19601f820116820180604052508101906102d19190610b08565b6001600160a01b0316146102f857604051633aa1064360e01b815260040160405180910390fd5b60009182526005602052604090912060020180549091019055565b600480546040516331a9108f60e11b815291820183905233916001600160a01b0390911690636352211e90602401602060405180830381865afa15801561035e573d6000803e3d6000fd5b505050506040513d601f19601f820116820180604052508101906103829190610b08565b6001600160a01b0316146103a957604051633aa1064360e01b815260040160405180910390fd5b600090815260056020526040812080546001600160a01b03191681556001810182905560020155565b600480546040516331a9108f60e11b81529182018390526000916001600160a01b0390911690636352211e90602401602060405180830381865afa15801561041e573d6000803e3d6000fd5b505050506040513d601f19601f820116820180604052508101906104429190610b08565b9050336001600160a01b0382160361046d5760405163600acf0760e11b815260040160405180910390fd5b60008281526005602052604090206002015442101561049f5760405163228aecb960e21b815260040160405180910390fd5b60008281526005602052604090206001015415806104d257506000828152600560205260409020546001600160a01b0316155b806104f357506000828152600560205260409020546001600160a01b031633145b156105115760405163228aecb960e21b815260040160405180910390fd5b60008281526005602052604090206001015461053090829033906108df565b600480546040516323b872dd60e01b81526001600160a01b0384811693820193909352336024820152604481018590529116906323b872dd90606401600060405180830381600087803b15801561058657600080fd5b505af115801561059a573d6000803e3d6000fd5b5050506000928352505060056020526040812080546001600160a01b03191681556001810182905560020155565b600480546040516331a9108f60e11b815291820185905233916001600160a01b0390911690636352211e90602401602060405180830381865afa158015610613573d6000803e3d6000fd5b505050506040513d601f19601f820116820180604052508101906106379190610b08565b6001600160a01b03161461065e57604051633aa1064360e01b815260040160405180910390fd5b8042111561067f5760405163228aecb960e21b815260040160405180910390fd5b6000838152600560205260409020600101548290036106b15760405163228aecb960e21b815260040160405180910390fd5b6040805160608101825233815260208082019485528183019384526000958652600590529320925183546001600160a01b0319166001600160a01b039091161783559051600183015551600290910155565b6001600160a01b038216600090815260036020526040902080548061072a5761072a610b25565b6000828152602081206002600019909301838102909101828155600101829055909255805483929061075d908490610ac0565b909155505060005460405163a9059cbb60e01b81526001600160a01b038481166004830152602482018490529091169063a9059cbb906044016020604051808303816000875af11580156107b5573d6000803e3d6000fd5b505050506040513d601f19601f820116820180604052508101906107d99190610b3b565b505050565b6000426704a90ca1de7d7101604051602001610804929190918252602082015260400190565b6040516020818303038152906040528051906020012060001c90506000620151808360000151426108359190610ac0565b61083f9190610b73565b9050600061084d8284610b87565b6103e8856020015161085f9190610b73565b6108699190610b9b565b905080156108d85760015460405163393840f760e21b81526001600160a01b038781166004830152602482018490529091169063e4e103dc90604401600060405180830381600087803b1580156108bf57600080fd5b505af11580156108d3573d6000803e3d6000fd5b505050505b5050505050565b6000546040516323b872dd60e01b81526001600160a01b03848116600483015230602483015260448201849052909116906323b872dd906064016020604051808303816000875af1158015610938573d6000803e3d6000fd5b505050506040513d601f19601f8201168201806040525081019061095c9190610b3b565b50806002600082825461096f9190610bb2565b90915550506001600160a01b0390921660009081526003602090815260408083208151808301909252428252818301958652805460018181018355918552929093209051600290920201908155925192019190915550565b50805460008255600202906000526020600020908101906109e891906109eb565b50565b5b80821115610a0657600080825560018201556002016109ec565b5090565b6001600160a01b03811681146109e857600080fd5b600060208284031215610a3157600080fd5b8135610a3c81610a0a565b9392505050565b60008060408385031215610a5657600080fd5b50508035926020909101359150565b600060208284031215610a7757600080fd5b5035919050565b600080600060608486031215610a9357600080fd5b505081359360208301359350604090920135919050565b634e487b7160e01b600052601160045260246000fd5b81810381811115610ad357610ad3610aaa565b92915050565b634e487b7160e01b600052603260045260246000fd5b600060018201610b0157610b01610aaa565b5060010190565b600060208284031215610b1a57600080fd5b8151610a3c81610a0a565b634e487b7160e01b600052603160045260246000fd5b600060208284031215610b4d57600080fd5b81518015158114610a3c57600080fd5b634e487b7160e01b600052601260045260246000fd5b600082610b8257610b82610b5d565b500490565b600082610b9657610b96610b5d565b500690565b8082028115828204841417610ad357610ad3610aaa565b80820180821115610ad357610ad3610aaa56fea264697066735822122064e337ce47641198db6ad0e0d8f7bfdd520c329525bf251fae617b6643ba89d064736f6c63430008110033",
    "sourcePath": "d:/react/learn-solidity/TestTaskAudit/contracts/Marketplace.sol",
    "compiler": {
        "name": "solc",
        "version": "0.8.17+commit.8df45f5f"
    },
    "functionHashes": {
        "PCT_DENOMINATOR()": "80b1acf5",
        "_rewardsAmount()": "7c7dcd33",
        "buy(uint256)": "d96a094a",
        "claim(address)": "1e83409a",
        "discardFromSale(uint256)": "98e8b1db",
        "items(uint256)": "bfb231d2",
        "postponeSale(uint256,uint256)": "60a5b604",
        "setForSale(uint256,uint256,uint256)": "f4fb5dff"
    },
    "gasEstimates": {
        "creation": {
            "codeDepositCost": "613400",
            "executionCost": "infinite",
            "totalCost": "infinite"
        },
        "external": {
            "PCT_DENOMINATOR()": "251",
            "_rewardsAmount()": "2329",
            "buy(uint256)": "infinite",
            "claim(address)": "infinite",
            "discardFromSale(uint256)": "infinite",
            "items(uint256)": "6777",
            "postponeSale(uint256,uint256)": "infinite",
            "setForSale(uint256,uint256,uint256)": "infinite"
        }
    }
}